:020000040800F2
:1000000000000520C5450008F53D0008033E000836
:100010000D3E0008133E0008193E000800000000D5
:10002000000000000000000000000000714F010807
:100030001F3E00080000000081510108E95101083D
:100040001546000815460008154600081546000824
:100050001546000815460008154600081546000814
:100060001546000815460008154600081546000804
:1000700015460008154600081546000815460008F4
:1000800015460008154600081546000815460008E4
:1000900015460008154600081546000815460008D4
:1000A00015460008154600081546000815460008C4
:1000B0001546000815460008154600082D3E0008A4
:1000C000413E000815460008154600081546000880
:1000D0001546000815460008154600081546000894
:1000E0001546000815460008154600081546000884
:1000F00015460008553E000815460008154600083C
:1001000015460008693E0008154600081546000817
:1001100015460008154600087D3E0008913E00087F
:1001200015460008A53E000815460008B93E00081F
:100130001546000815460008154600081546000833
:100140001546000815460008154600081546000823
:10015000CD3E0008E13E000815460008F53E0008C7
:100160001546000815460008154600081546000803
:100170001546000815460008154600080000000056
:1001800015460008154600081546000815460008E3
:1001900015460008093F00081546000815460008E6
:1001A0001D3F000815460008313F000815460008AD
:1001B00015460008154600081546000815460008B3
:0801C000154600081546000871
:1001D00010B5054C237833B9044B13B10448AFF381
:1001E00000800123237010BDA00200200000000049
:1001F00058F2020808B5034B1BB103490348AFF39B
:10020000008008BD00000000A402002058F202088F
:10021000034613F8012B002AFBD1181A0138704746
:1002200001F0FF01102A2BDB10F0070F08D010F8A7
:10023000013B013A8B422DD010F0070F42B3F6D1AB
:10024000F0B441EA012141EA014122F007047FF0C4
:1002500000070023F0E80256083C85EA010586EA1B
:10026000010685FA47F5A3FA87F586FA47F6A5FA57
:1002700087F68EB9EED1F0BC01F0FF0102F0070263
:1002800032B110F8013B013A83EA010313B1F8D10E
:100290000020704701387047002D06BF35460338EF
:1002A000073815F0010F07D1013015F4807F02BF28
:1002B000013015F4C03F0130F0BC0138704700BF79
:1002C00081F0004102E000BF83F0004330B54FEA07
:1002D00041044FEA430594EA050F08BF90EA020F74
:1002E0001FBF54EA000C55EA020C7FEA645C7FEA07
:1002F000655C00F0E2804FEA5454D4EB5555B8BF2A
:100300006D420CDD2C4480EA020281EA030382EA9A
:10031000000083EA010180EA020281EA0303362D2C
:1003200088BF30BD11F0004F4FEA01314FF4801CFF
:100330004CEA113102D0404261EB410113F0004F11
:100340004FEA03334CEA133302D0524263EB4303C8
:1003500094EA050F00F0A780A4F10104D5F1200E66
:100360000DDB02FA0EFC22FA05F2801841F10001C1
:1003700003FA0EF2801843FA05F359410EE0A5F195
:1003800020050EF1200E012A03FA0EFC28BF4CF0C6
:10039000020C43FA05F3C01851EBE37101F000457C
:1003A00007D54FF0000EDCF1000C7EEB00006EEB89
:1003B0000101B1F5801F1BD3B1F5001F0CD3490813
:1003C0005FEA30004FEA3C0C04F101044FEA44526A
:1003D00012F5800F80F09A80BCF1004F08BF5FEAF1
:1003E000500C50F1000041EB045141EA050130BDD1
:1003F0005FEA4C0C404141EB0101013C28BFB1F5E3
:10040000801FE9D291F0000F04BF01460020B1FA2D
:1004100081F308BF2033A3F10B03B3F120020CDA00
:100420000C3208DD02F1140CC2F10C0201FA0CF0DE
:1004300021FA02F10CE002F11402D8BFC2F1200C43
:1004400001FA02F120FA0CFCDCBF41EA0C019040F9
:10045000E41AA2BF01EB0451294330BD6FEA040442
:100460001F3C1CDA0C340EDC04F11404C4F120022D
:1004700020FA04F001FA02F340EA030021FA04F33F
:1004800045EA030130BDC4F10C04C4F1200220FA96
:1004900002F001FA04F340EA0300294630BD21FAD4
:1004A00004F0294630BD94F0000F83F4801306BF9A
:1004B00081F480110134013D4EE77FEA645C18BF8E
:1004C0007FEA655C29D094EA050F08BF90EA020F25
:1004D00005D054EA000C04BF1946104630BD91EA1D
:1004E000030F1EBF0021002030BD5FEA545C05D120
:1004F0004000494128BF41F0004130BD14F580045F
:100500003CBF01F5801130BD01F0004545F0FE41D2
:1005100041F470014FF0000030BD7FEA645C1ABF07
:10052000194610467FEA655C1CBF0B46024650EA3E
:10053000013406BF52EA033591EA030F41F400216A
:1005400030BD00BF90F0000F04BF0021704730B5F0
:100550004FF4806404F132044FF000054FF00001C5
:1005600050E700BF90F0000F04BF0021704730B586
:100570004FF4806404F1320410F0004548BF40425B
:100580004FF000013EE700BF42004FEAE2014FEAB0
:1005900031014FEA02701FBF12F07F4393F07F4F8B
:1005A00081F06051704732F07F4208BF704793F08E
:1005B0007F4F04BF41F40021704730B54FF46074A1
:1005C00001F0004521F000411CE700BF50EA0102A4
:1005D00008BF704730B54FF000050AE050EA01024D
:1005E00008BF704730B511F0004502D5404261EBBD
:1005F00041014FF4806404F132045FEA915C3FF4FE
:10060000D8AE4FF003025FEADC0C18BF03325FEA9A
:10061000DC0C18BF033202EBDC02C2F1200300FA4B
:1006200003FC20FA02F001FA03FE40EA0E0021FA70
:1006300002F11444BDE600BF70B54FF0FF0C4CF45E
:10064000E06C1CEA11541DBF1CEA135594EA0C0F10
:1006500095EA0C0F00F0DEF82C4481EA030621EA4B
:100660004C5123EA4C5350EA013518BF52EA033586
:1006700041F4801143F4801338D0A0FB02CE4FF038
:100680000005E1FB02E506F00042E0FB03E54FF068
:100690000006E1FB03569CF0000F18BF4EF0010E60
:1006A000A4F1FF04B6F5007F64F5407404D25FEA5C
:1006B0004E0E6D4146EB060642EAC62141EA55510F
:1006C0004FEAC52040EA5E504FEACE2EB4F1FD0C51
:1006D00088BFBCF5E06F1ED8BEF1004F08BF5FEACF
:1006E000500E50F1000041EB045170BD06F0004681
:1006F00046EA010140EA020081EA0301B4EB5C042E
:10070000C2BFD4EB0C0541EA045170BD41F4801125
:100710004FF0000E013C00F3AB8014F1360FDEBF4A
:10072000002001F0004170BDC4F10004203C35DA26
:100730000C341BDC04F11404C4F1200500FA05F3A9
:1007400020FA04F001FA05F240EA020001F000424A
:1007500021F0004110EBD37021FA04F642EB0601C0
:100760005EEA430E08BF20EAD37070BDC4F10C04EA
:10077000C4F1200500FA04F320FA05F001FA04F2AE
:1007800040EA020001F0004110EBD37041F100019A
:100790005EEA430E08BF20EAD37070BDC4F12005A5
:1007A00000FA05F24EEA020E20FA04F301FA05F20D
:1007B00043EA020321FA04F001F0004121FA04F2B5
:1007C00020EA020000EBD3705EEA430E08BF20EA85
:1007D000D37070BD94F0000F0FD101F000464000BF
:1007E00041EB010111F4801F08BF013CF7D041EA41
:1007F000060195F0000F18BF704703F00046520045
:1008000043EB030313F4801F08BF013DF7D043EA15
:100810000603704794EA0C0F0CEA135518BF95EACB
:100820000C0F0CD050EA410618BF52EA4306D1D152
:1008300081EA030101F000414FF0000070BD50EA71
:10084000410606BF1046194652EA430619D094EAFB
:100850000C0F02D150EA013613D195EA0C0F05D1E5
:1008600052EA03361CBF104619460AD181EA030139
:1008700001F0004141F0FE4141F470014FF00000F1
:1008800070BD41F0FE4141F4780170BD70B54FF08C
:10089000FF0C4CF4E06C1CEA11541DBF1CEA13550C
:1008A00094EA0C0F95EA0C0F00F0A7F8A4EB0504EE
:1008B00081EA030E52EA03354FEA013100F08880E5
:1008C0004FEA03334FF0805545EA131343EA1263AE
:1008D0004FEA022245EA111545EA10654FEA002663
:1008E0000EF000419D4208BF964244F1FD0404F51C
:1008F000407402D25B084FEA3202B61A65EB030578
:100900005B084FEA32024FF480104FF4002CB6EB34
:10091000020E75EB030E22BFB61A754640EA0C00B4
:100920005B084FEA3202B6EB020E75EB030E22BFF4
:10093000B61A754640EA5C005B084FEA3202B6EB35
:10094000020E75EB030E22BFB61A754640EA9C00F4
:100950005B084FEA3202B6EB020E75EB030E22BFC4
:10096000B61A754640EADC0055EA060E18D04FEA82
:10097000051545EA16754FEA06164FEAC30343EA22
:1009800052734FEAC2025FEA1C1CC0D111F4801FEF
:100990000BD141EA00014FF000004FF0004CB6E7E8
:1009A00011F4801F04BF01430020B4F1FD0C88BF87
:1009B000BCF5E06F3FF6AFAEB5EB030C04BFB6EB92
:1009C000020C5FEA500C50F1000041EB045170BD85
:1009D0000EF0004E4EEA113114EB5C04C2BFD4EBB2
:1009E0000C0541EA045170BD41F480114FF0000E36
:1009F000013C90E645EA060E8DE60CEA135594EAB2
:100A00000C0F08BF95EA0C0F3FF43BAF94EA0C0FB4
:100A10000AD150EA01347FF434AF95EA0C0F7FF429
:100A200025AF104619462CE795EA0C0F06D152EA7D
:100A300003353FF4FDAE1046194622E750EA410661
:100A400018BF52EA43067FF4C5AE50EA41047FF472
:100A50000DAF52EA43057FF4EBAE12E74FF0FF3CD7
:100A600006E000BF4FF0010C02E000BF4FF0010CA8
:100A70004DF804CD4FEA410C7FEA6C5C4FEA430C21
:100A800018BF7FEA6C5C1BD001B050EA410C0CBF70
:100A900052EA430C91EA030F02BF90EA020F0020D2
:100AA000704710F1000F91EA030F58BF994208BF39
:100AB00090422CBFD8176FEAE37040F001007047F6
:100AC0004FEA410C7FEA6C5C02D150EA013C07D14D
:100AD0004FEA430C7FEA6C5CD6D152EA033CD3D098
:100AE0005DF8040B704700BF8446104662468C4692
:100AF0001946634600E000BF01B5FFF7B7FF0028C5
:100B000048BF10F1000F01BD4DF808EDFFF7F4FFED
:100B10000CBF012000205DF808FB00BF4DF808ED78
:100B2000FFF7EAFF34BF012000205DF808FB00BF9B
:100B30004DF808EDFFF7E0FF94BF012000205DF8BD
:100B400008FB00BF4DF808EDFFF7CEFF94BF012072
:100B500000205DF808FB00BF4DF808EDFFF7C4FF6B
:100B600034BF012000205DF808FB00BF4FEA410CB4
:100B70007FEA6C5C02D150EA013C0AD14FEA430C97
:100B80007FEA6C5C02D152EA033C02D14FF00000D4
:100B900070474FF0010070474FEA410212F5001212
:100BA00015D211D56FF47873B3EB625212D94FEAB4
:100BB000C12343F0004343EA505311F0004F23FA9E
:100BC00002F018BF404270474FF00000704750EAF3
:100BD000013005D111F0004008BF6FF000407047B0
:100BE0004FF00000704700BF4A0011D212F500120A
:100BF00011D20DD56FF47873B3EB62520ED44FEA75
:100C0000C12343F0004343EA505323FA02F07047F4
:100C10004FF00000704750EA013002D14FF0FF3032
:100C200070474FF0000070474FEA4102B2F1E043D5
:100C300024BFB3F5001CDCF1FE5C0DD901F0004CC3
:100C40004FEAC0024CEA5070B2F1004F40EB830013
:100C500008BF20F00100704711F0804F21D113F13F
:100C60003872BCBF01F00040704741F480114FEA78
:100C70005252C2F11802C2F1200C10FA0CF320FA01
:100C800002F018BF40F001004FEAC1234FEAD3231E
:100C900003FA0CFC40EA0C0023FA02F34FEA430388
:100CA000CCE77FEA625307D150EA01331EBF4FF011
:100CB000FE4040F44000704701F0004040F0FE402C
:100CC00040F40000704700BF53B94AB9002908BF7B
:100CD00000281CBF4FF0FF314FF0FF3000F0AAB9E1
:100CE000ADF1080C6DE904CE00F03CF8DDF804E04D
:100CF000DDE9022304B0704738B500220023044622
:100D00000D46FFF70BFF28B920462946BDE83840BD
:100D100000F00AB8204605F1004100F005F8404215
:100D200061EB410138BD00BFD0B50C4B0022064637
:100D30000F46FFF781FCFFF757FF0446FFF702FC61
:100D4000074B0022FFF778FC02460B463046394637
:100D5000FFF7BAFAFFF748FF2146D0BD0000F03D8B
:100D60000000F0412DE9F047089D04468E46002B17
:100D70004DD18A42944669D9B2FA82F252B101FA4F
:100D800002F3C2F1200120FA01F10CFA02FC41EA5F
:100D9000030E94404FEA1C48210CBEFBF8F61FFAE4
:100DA0008CF708FB16E341EA034306FB07F199427F
:100DB0000AD91CEB030306F1FF3080F01F81994232
:100DC00040F21C81023E63445B1AA4B2B3FBF8F00C
:100DD00008FB103344EA034400FB07F7A7420AD993
:100DE0001CEB040400F1FF3380F00A81A74240F2BB
:100DF00007816444023840EA0640E41B00261DB126
:100E0000D4400023C5E900433146BDE8F0878B425A
:100E100009D9002D00F0EF800026C5E90001304619
:100E20003146BDE8F087B3FA83F6002E4AD18B42F3
:100E300002D3824200F2F980841A61EB030301209D
:100E40009E46002DE0D0C5E9004EDDE702B9FFDE89
:100E5000B2FA82F2002A40F09280A1EB0C014FEA34
:100E60001C471FFA8CFE0126200CB1FBF7F307FB91
:100E7000131140EA01410EFB03F0884208D91CEB34
:100E8000010103F1FF3802D2884200F2CB804346D1
:100E9000091AA4B2B1FBF7F007FB101144EA0144B0
:100EA0000EFB00FEA64508D91CEB040400F1FF313F
:100EB00002D2A64500F2BB800846A4EB0E0440EA2D
:100EC00003409CE7C6F12007B34022FA07FC4CEA36
:100ED000030C20FA07F401FA06F31C43F9404FEA29
:100EE0001C4900FA06F3B1FBF9F8200C1FFA8CFE3E
:100EF00009FB181140EA014108FB0EF0884202FA92
:100F000006F20BD91CEB010108F1FF3A80F0888052
:100F1000884240F28580A8F102086144091AA4B20F
:100F2000B1FBF9F009FB101144EA014100FB0EFE90
:100F30008E4508D91CEB010100F1FF346CD28E45BF
:100F40006AD90238614440EA0840A0FB0294A1EB50
:100F50000E01A142C846A64656D353D05DB1B3EBAD
:100F6000080261EB0E0101FA07F722FA06F3F140DD
:100F70001F43C5E9007100263146BDE8F087C2F184
:100F80002003D8400CFA02FC21FA03F391400143FC
:100F90004FEA1C471FFA8CFEB3FBF7F007FB103635
:100FA0000B0C43EA064300FB0EF69E4204FA02F4E1
:100FB00008D91CEB030300F1FF382FD29E422DD934
:100FC000023863449B1B89B2B3FBF7F607FB163369
:100FD00041EA034106FB0EF38B4208D91CEB0101E9
:100FE00006F1FF3816D28B4214D9023E6144C91A69
:100FF00046EA004638E72E46284605E70646E3E679
:101000001846F8E64B45A9D2B9EB020864EB0C0E82
:101010000138A3E74646EAE7204694E74046D1E791
:10102000D0467BE7023B614432E7304609E764443F
:10103000023842E7704700BF80B588B004AF03466E
:10104000FB710723FB730A4B1868FB799AB20A23DA
:1010500002930123019307F10F0300930123EE2173
:1010600008F084FFFB7B18461037BD4680BD00BFEB
:10107000BC02002080B588B004AF0346FB710D4B65
:101080001868FB799AB20A2302930223019307F1AD
:101090000C0300930123EE2108F068FF3B7B1B0249
:1010A0001AB27B7B1BB213431BB29BB2184610379C
:1010B000BD4680BDBC02002080B586B004AF0346AB
:1010C0000A46FB711346BB71084B1868FB799AB24C
:1010D0000A23029301230193BB1D00930123EE21F8
:1010E00008F030FE00BF0837BD4680BDBC020020BE
:1010F00080B500AF2E21F420FFF7DEFF00BFF42003
:10110000FFF79AFF034603F02003002BF7D1F620E8
:10111000FFF7B0FF0346184680BD000080B485B0DD
:1011200000AF7860104B1B881A467B689B1A0F4AE9
:10113000128802FB03F3DB13FB600D4BB3F90030A5
:10114000DA020C4BB3F900301946FB680B4492FBF2
:10115000F3F3BB60FA68BB68134418461437BD4606
:101160005DF8047B704700BFD6020020D402002047
:10117000CE020020D002002080B582B000AF2D4BFF
:101180001B789B01DBB23433DBB21946F420FFF746
:1011900093FF284B1B78002B09D100BFF420FFF7E9
:1011A0004BFF034603F02003002BF7D124E0214B33
:1011B0001B78012B09D100BFF420FFF73DFF034648
:1011C00003F02003002BF7D116E01A4B1B78022BFB
:1011D00009D100BFF420FFF72FFF034603F02003DF
:1011E000002BF7D108E000BFF420FFF725FF0346EE
:1011F00003F02003002BF7D1F620FFF73BFF034657
:101200007B607B681B027B60F820FFF715FF0346BD
:101210001A467B6813437B60064B1B78C3F10803B7
:101220007A6822FA03F37B607B6818460837BD466C
:1012300080BD00BFC002002080B582B000AF7860E2
:101240000B46FB70314A7B681360FB78032B01D996
:101250000323FB702E4AFB78137000BFD020FFF7EA
:10126000EBFE0346552BF9D1AA20FFF703FF0346F7
:101270001AB2284B1A80AC20FFF7FCFE03461AB2C4
:10128000254B1A80AE20FFF7F5FE03461AB2234B1A
:101290001A80B020FFF7EEFE03461A46204B1A8054
:1012A000B220FFF7E7FE03461A461E4B1A80B42011
:1012B000FFF7E0FE03461A461B4B1A80B620FFF7E5
:1012C000D9FE03461AB2194B1A80B820FFF7D2FE96
:1012D00003461AB2164B1A80BA20FFF7CBFE03461C
:1012E0001AB2144B1A80BC20FFF7C4FE03461AB290
:1012F000114B1A80BE20FFF7BDFE03461AB20F4BFA
:101300001A8000BF0837BD4680BD00BFBC02002068
:10131000C0020020C2020020C4020020C602002039
:10132000D2020020D4020020D6020020C8020020F1
:10133000CA020020CC020020CE020020D0020020F1
:1013400080B584B000AFFFF7D3FE0346FB60F868BA
:10135000FFF7E4FEB860BB6808331B1107EE903A54
:10136000F8EEE77AC7ED017A97ED017AF2EE046ABA
:10137000C7EE267AC7ED017A7B6807EE903AB0EEA9
:10138000670A1037BD4680BD80B58CB000AFFFF74F
:10139000AFFE0346BB62FFF7EFFE7862B86AFFF765
:1013A000BDFE38623B6AA3F57A63FB61454BB3F936
:1013B00000301A46FB6903FB03F31B1302FB03F324
:1013C000DB12BB61404BB3F900301A46FB6902FBEC
:1013D00003F3DB127B61BA697B6913443B613B4BCE
:1013E000B3F900309A003B691344394A12789340AC
:1013F0000233002B00DA03339B10FB60354BB3F94B
:1014000000301A46FB6902FB03F35B13BB61324BEE
:10141000B3F900301A46FB6903FB03F31B1302FB0D
:1014200003F31B147B61BA697B69134402339B107D
:101430003B612A4B1B881A463B6903F5004302FBBC
:1014400003F3DB0BBB607A6AFB68D31A204A12787D
:1014500011464CF25032CA4002FB03F37B607B68BA
:10146000002B06DB7B685A00BB68B2FBF3F3FB6220
:1014700005E07A68BB68B2FBF3F35B00FB62FB6AD2
:101480001B12FA6A121202FB03F3BB61BB6940F63E
:10149000DE3202FB03F31B14BB61FB6A104A02FB42
:1014A00003F31B147B61BA697B69134403F6CF63B2
:1014B0001B11FA6A1344FB62FB6A18463037BD46BB
:1014C00080BD00BFCA020020C4020020C20200206A
:1014D000C0020020C6020020C8020020D202002064
:1014E00043E3FFFF80B588B000AF78600B467B8098
:1014F00007F10C0300221A605A609A60DA601A61E0
:101500007B88FB6001233B610023BB6107F10C0377
:101510001946786808F06CF800BF2037BD4680BDDA
:1015200080B588B000AF78600B467B8007F10C0374
:1015300000221A605A609A60DA601A617B88FB6048
:1015400000233B6101237B6107F10C031946786896
:1015500008F04EF800BF2037BD4680BD80B500AF13
:1015600008210D48FFF7BEFF002208210A4808F0B5
:101570000FFB44F2506000F065F901220821064893
:1015800008F006FB142000F05DF908210248FFF77F
:10159000C7FF00BF80BD00BF0020024080B582B001
:1015A00000AF0023FB71282000F04CF908211148FE
:1015B00008F0D6FA0346002B0ED1502000F042F975
:1015C00008210C4808F0CCFA0346002B02D0012376
:1015D000FB7101E0FF23FB7100BF0821054808F003
:1015E000BFFA0346002BF8D1FB7918460837BD46F1
:1015F00080BD00BF0020024080B582B000AF002354
:10160000BB7137E000BF08211E4808F0A9FA034665
:10161000002BF8D0282000F015F90821194808F00F
:101620009FFA0346002B0ED1BB79C3F107030122B9
:1016300002FA03F35BB2DB435AB297F90730134067
:101640005BB2FB710BE0BB79C3F10703012202FA25
:1016500003F35AB297F9073013435BB2FB7100BF33
:101660000821084808F07CFA0346002BF8D1BB7922
:101670000133BB71BB79072BC4D9FB7918460837F6
:10168000BD4680BD0020024080B582B000AF7860CA
:10169000FFF764FFFFF782FF03461A46234B1A70D9
:1016A000FFF7AAFF03461A46214B1A70FFF7A4FF63
:1016B00003461A461F4B1A70FFF79EFF03461A4651
:1016C0001D4B1A70FFF798FF03461A461B4B1A7002
:1016D000FFF792FF03469AB2194B1A80184B1B88EA
:1016E0001946134B1B781A46124B1B781344124AA7
:1016F00012781344114A12781344994211D10E4BB7
:101700001B7807EE903AF8EE677A7B68C3ED007AB3
:10171000074B1B7807EE903AF8EE677A7B68C3EDCB
:10172000017A00BF0837BD4680BD00BFDE02002041
:10173000D8020020D9020020DA020020DB020020BB
:10174000DC02002080B500AF0249002015F084FAC9
:1017500000BF80BD9149000880B483B000AF7860BD
:10176000396000BF0C37BD465DF8047B7047000050
:1017700080B400AFBFF34F8F00BFBFF36F8F00BFC8
:101780000D4B0022C3F85022BFF34F8F00BFBFF3B1
:101790006F8F00BF084B5B69074A43F40033536106
:1017A000BFF34F8F00BFBFF36F8F00BF00BFBD46B9
:1017B0005DF8047B704700BF00ED00E080B485B0A9
:1017C00000AF1F4B0022C3F88420BFF34F8F00BF30
:1017D0001B4BD3F880307B607B685B0BC3F30E033D
:1017E000FB607B68DB08C3F30903BB60FB685A013D
:1017F00043F6E0731340BA68920711491343C1F8E6
:101800006032BB685A1EBA60002BEFD1FB685A1ECB
:10181000FA60002BE5D1BFF34F8F00BF084B5B6927
:10182000074A43F480335361BFF34F8F00BFBFF3C8
:101830006F8F00BF00BF1437BD465DF8047B704753
:1018400000ED00E080B483B000AF0346FB80094B9D
:101850001B6800225A6200BF064B1B685A6AFB884D
:101860009A42F9D300BF00BF0C37BD465DF8047B38
:10187000704700BF7007002080B500AF01F0E6F8A8
:10188000FFF776FFFFF79AFF06F0BAFD00F0C8F801
:1018900000F022FD00F03EFC00F094F900F070FC36
:1018A00000F002FA00F040FA00F0C0FA00F04EFB3F
:1018B00000F066F902F00CFC00F0A2FB00F0B4F9B5
:1018C00000F064FB00F0D2FB00F0E4FA00F0F2FB61
:1018D00002F0A8FE02F09FFE35480DF053FE0523EE
:1018E00001220121334801F033F9324801F00AFAAC
:1018F000304801F087FA2F4801F032FA2D4801F004
:10190000C1FA01212B48FFF797FC12F0E1FA2A48AF
:1019100012F066FC0346294A1360294A012101207E
:1019200012F0F8FC0346274A1360274A01210120E0
:1019300012F0F0FC0346254A1360254A01210120DC
:1019400012F0E8FC0346234A1360234A002123488F
:1019500012F072FB0346224A1360224A00212248F9
:1019600012F06AFB0346214A1360214A00212148F4
:1019700012F062FB0346204A1360204A00212048EF
:1019800012F05AFB03461F4A13601F4A00211F48EA
:1019900012F052FB03461E4A13601E4A00211E48E5
:1019A00012F04AFB03461D4A136012F0E7FAFEE705
:1019B00070070020BC030020D4F40208DC160020CD
:1019C000E4F40208E0160020F4F4020834170020C2
:1019D00004F5020838170020FCF302083546000819
:1019E0000409002020F40208D92400080809002076
:1019F00044F40208D9260008CC0B002068F4020841
:101A000029290008900E00208CF40208652900089E
:101A100054110020B0F40208B12900081814002065
:101A200080B5B4B000AF07F1A00330220021184602
:101A300029F014F807F18C0300221A605A609A60AA
:101A4000DA601A6107F1080384220021184629F0A0
:101A500005F8484B1B6C474A43F080531364454BD1
:101A60001B6C03F080537B607B68434B1B68424ACE
:101A700043F440431360404B1B6803F440433B6016
:101A80003B680923C7F8A0304FF48033C7F8A4306F
:101A90000123C7F8B4300223C7F8B8304FF48003ED
:101AA000C7F8BC301923C7F8C0304FF4C873C7F863
:101AB000C4300223C7F8C8300823C7F8CC3007F178
:101AC000A00318460AF040FC0346002B01D001F0A9
:101AD00037F809F0A1FE0346002B01D001F030F8E1
:101AE0000F23C7F88C300223C7F890300023C7F8C3
:101AF00094304FF4A053C7F898304FF48053C7F890
:101B00009C3007F18C03062118460AF0C1FE0346FB
:101B1000002B01D001F014F8184BBB604FF4C073D8
:101B2000FB6105237B6202233B620023BB6201232E
:101B30003B634FF400337B634FF40073BB630023BC
:101B40003B660023FB6600237B670023C7F88430D5
:101B50000023C7F8883007F1080318460BF0B0F8E7
:101B60000346002B01D000F0EBFF00BFD037BD468D
:101B700080BD00BF00380240007000402848A1002E
:101B800080B500AF0D4B0E4A1A600C4B00221A7143
:101B90000A4B00225A71094B00225A61074B00225E
:101BA0009A61064B01221A62044806F035FE03468C
:101BB000002B01D000F0C4FF00BF80BD58030020FF
:101BC0000030024080B500AF154B164A1A60144B26
:101BD00000225A60124B00229A60114B0022DA60F8
:101BE0000F4B00229A620E4B0022DA620C4B00224D
:101BF0001A630B4B00225A63094807F00DFB03469A
:101C0000002B01D000F09CFF0121054807F05EFC8D
:101C10000346002B01D000F093FF00BF80BD00BF42
:101C20007C03002000B0024080B500AF1B4B1C4A73
:101C30001A601A4B1B4A5A60184B00229A60174BC5
:101C40000122DA60154B00221A61144B00225A61FE
:101C5000124B00229A61114B0022DA610F4B0022D5
:101C60001A620E4807F0AEFF0346002B01D000F0C9
:101C700067FF0021094809F0A0F90346002B01D0B5
:101C800000F05EFF0021054809F0E2F90346002B51
:101C900001D000F055FF00BF80BD00BFBC03002095
:101CA000005400405919400080B500AF1B4B1C4A3E
:101CB0001A601A4B1B4A5A60184B00229A60174B45
:101CC0000122DA60154B00221A61144B00225A617E
:101CD000124B00229A61114B0022DA610F4B002255
:101CE0001A620E4807F06EFF0346002B01D000F089
:101CF00027FF0021094809F060F90346002B01D0B5
:101D000000F01EFF0021054809F0A2F90346002B50
:101D100001D000F015FF00BF80BD00BF0804002007
:101D2000005C0040FFEAC00080B58EB000AF3B1DF4
:101D300034220021184628F091FE3A4B3A4A1A60A4
:101D4000384B00225A60374B00229A60354B0022F4
:101D5000DA60344B00221A61324B28225A61314B2F
:101D600009229A612F4B3522DA612E4B0B221A621F
:101D70002C4B40F215225A622A4B40F21B129A62F7
:101D8000284B40F23522DA62264B40F21D121A63CC
:101D9000244B002283F83420224B002283F8352084
:101DA000204B002283F836201E4809F09DF9034697
:101DB000002B01D000F0C4FE00237B604FF4F073D1
:101DC000BB600023FB604FF488733B6102237B619F
:101DD000FF23BB610023FB614FF480633B6205235B
:101DE0007B624FF04043BB624FF4F073FB624FF4F1
:101DF00088733B63002387F83430002387F835303D
:101E0000002387F836303B1D00221946054809F0AB
:101E1000F3FA0346002B01D000F092FE00BF3837E2
:101E2000BD4680BD540400200068014080B500AF6D
:101E3000164B174A1A60154B01225A60134B0422A5
:101E40009A60124B1022DA60104B18221A610F4B65
:101E50004FF4A0625A610D4B00229A610B4B002295
:101E6000DA610A4B00221A62084809F025FD034690
:101E7000002B01D000F064FE05F032FE05F088FE74
:101E80005C2006F03AFC00BF80BD00BFFC040020CF
:101E9000001000A080B588B000AF07F10803002251
:101EA0001A605A609A60DA601A615A6100237B6096
:101EB000244B254A1A60234B00225A60214B7F2273
:101EC0009A60204BFF22DA601E4B00221A611D4BE4
:101ED00000225A611B4B00229A611A480BF0E0FA6B
:101EE0000346002B01D000F02BFE00233B720023A1
:101EF0007B720023BB720023BB610023FB6107F1EF
:101F00000803012219460F480BF046FB0346002B3D
:101F100001D000F015FE01233B7101237B710123E9
:101F2000BB710023FB713B1D0122194605480BF0D4
:101F30004FFC0346002B01D000F002FE00BF20370B
:101F4000BD4680BD480500200028004080B400AF99
:101F50000C4B0D4A1A600B4B00225A60094B0022B1
:101F60009A60084B0022DA60064B00221A61054B8A
:101F700000225A61034B00229A6100BFBD465DF802
:101F8000047B704768050020002C014080B500AF3D
:101F9000194B1A4A1A60184B00225A60164B00223D
:101FA0009A60154B4FF4E062DA60134B00221A611D
:101FB000114B00225A61104B4FF400729A610E4B84
:101FC00000221A620C4B00225A620B4B00229A62CA
:101FD000094B0722DA62084B00221A63064B0022E3
:101FE0005A6305480DF0F1F80346002B01D000F0CC
:101FF000A7FD00BF80BD00BFAC060020005001401F
:1020000080B584B000AF3B1D00221A605A609A6010
:10201000144B154A1A60134B63225A60114B00226D
:102020009A60104B4EF66022DA600E4B00229A61E5
:102030000C480DF07CFA0346002B01D000F080FD27
:1020400000237B600023FB603B1D194605480DF013
:10205000ABFC0346002B01D000F072FD00BF10372F
:10206000BD4680BD700700200014004080B500AF61
:102070000E4B0F4A1A600D4B42F20F725A600B4B17
:1020800000229A60094B49F64042DA60074B002271
:102090001A61064B00229A6104480DF048FA034683
:1020A000002B01D000F04CFD00BF80BDB007002028
:1020B0000020004080B500AF144B154A1A60134B46
:1020C0004FF416525A60114B00229A600F4B0022B7
:1020D000DA600E4B00221A610C4B0C225A610B4B3A
:1020E00000229A61094B0022DA61084B00221A6231
:1020F000064B00225A6205480DF002FD0346002BF4
:1021000001D000F01DFD00BF80BD00BFF007002022
:102110000014014080B582B000AF184B1B6B174A0A
:1021200043F480031363154B1B6B03F480037B6044
:102130007B6800220521392006F0B5FA392006F027
:10214000CEFA002205213B2006F0ADFA3B2006F036
:10215000C6FA00220521442006F0A5FA442006F024
:10216000BEFA00220521452006F09DFA452006F022
:10217000B6FA00BF0837BD4680BD00BF0038024038
:1021800080B588B000AF3B1D00221A605A609A608B
:10219000DA601A615A619A614C4B4D4A1A604B4B96
:1021A00000225A60494B00229A60484B0422DA60B0
:1021B000464B10221A61454B40225A61434B4FF463
:1021C000C0729A61414B0022DA61404B4FF40062C9
:1021D0001A623E4B4FF480525A623C4B00229A6284
:1021E00002237B600723BB600423FB6007233B6162
:1021F00003237B610223BB610223FB613B1D194664
:1022000032480CF063FF0346002B01D000F098FC2D
:1022100000233B602F4B01221A602E4B10225A6084
:102220002C4B01229A602B4B0022DA604FF6FF7292
:10223000284926480CF07EFF012006F01DF9254BA9
:1022400002221A60234B10225A60224B01229A600C
:10225000204B0022DA604FF6FF721E491B480CF03B
:1022600069FF1C4B03221A601A4B10225A60194B4B
:1022700008229A60174B0022DA604FF6FF72154968
:1022800012480CF057FF4FF40C733B60114B0422C3
:102290001A60104B10225A600E4B01229A603B6864
:1022A0000C4AD3604FF6FF720A4908480CF042FF0F
:1022B00040F22B7105480CF068FF4FF0204343F2C9
:1022C000D2021A6000BF2037BD4680BDD008002072
:1022D000400100A03C17002080B590B000AF07F18E
:1022E0002C0300221A605A609A60DA601A615E4B11
:1022F0001B6B5D4A43F0100313635B4B1B6B03F0D6
:102300001003BB62BB6A584B1B6B574A43F0020376
:102310001363554B1B6B03F002037B627B6A524BCA
:102320001B6B514A43F0040313634F4B1B6B03F0C9
:1023300004033B623B6A4C4B1B6B4B4A43F001036B
:102340001363494B1B6B03F00103FB61FB69464BB5
:102350001B6B454A43F040031363434B1B6B03F075
:102360004003BB61BB69404B1B6B3F4A43F40073A6
:1023700013633D4B1B6B03F400737B617B693A4B2A
:102380001B6B394A43F008031363374B1B6B03F095
:1023900008033B613B69344B1B6B334A43F4806356
:1023A0001363314B1B6B03F48063FB60FB682E4BA4
:1023B0001B6B2D4A43F0200313632B4B1B6B03F065
:1023C0002003BB60BB68284B1B6B274A43F4807318
:1023D0001363254B1B6B03F480737B607B68224B7C
:1023E0001B6B214A43F0800313631F4B1B6B03F0ED
:1023F00080033B603B68012208211C4807F0C8FBB2
:1024000001224FF480511A4807F0C2FB4FF40053E9
:10241000FB6200233B6300237B6307F12C03194617
:10242000144807F0E5F80823FB6201233B6300230F
:102430007B630023BB6307F12C0319460B4807F0AD
:10244000D7F84FF48053FB6201233B6300237B6387
:102450000023BB6307F12C031946054807F0C8F8B1
:1024600000BF4037BD4680BD003802400028024012
:10247000002002400008024080B582B000AF7860C2
:102480007B681B680E4A934216D10E4B1B68184698
:1024900012F042F80C4A0D4B104619464FF47A736D
:1024A0001A4628F0CDFA0A4B1B8801339AB2084B22
:1024B0001A80084B00221A6000BF0837BD4680BD55
:1024C00000140140E0160020341B00204C170020AF
:1024D0003C3F00206095002090B585B000AF78604B
:1024E0006B4B93F90030002B0CD16A4B93F9003001
:1024F000012B07D1674B00221A7000220021664889
:1025000010F08AFF624B93F90030012B0FD1614B21
:1025100093F90030002B0AD1002260495E4810F088
:102520007BFF0346002B02D15A4B01221A70594BF4
:1025300093F90030002B00F0A480594B5B880133E5
:102540009AB2574B5A8032225649574810F0C8FF6A
:102550000346002B31D10023FB6029E0FB686E228B
:1025600002FB03F3514A9C18FB686E2202FB03F343
:102570004E4A13441846FDF74BFE02464C4B21468B
:10258000494811F080F903461A464A4B1A70484BE5
:102590001B68002B03D0474B1B78002B05D1404B09
:1025A0009B8801339AB23E4B9A80FB680133FB60F3
:1025B000414B1B68FA689A42D0DB3B4811F0AFFBF5
:1025C0003E4B1A883D4B5B889A4227D032223C49C9
:1025D000354810F085FF0346002B18D1344B4FF4DB
:1025E000FF523849304811F04EF903461A46314B34
:1025F0001A702F4B1B68002B03D02E4B1B78002B1F
:1026000005D12E4B9B8801339AB22C4B9A802648D9
:1026100011F085FB294B1A88284B5A802A4B1B68DE
:10262000184611F079FF294B1A88284B5B889A428B
:1026300027D0322226491C4810F052FF0346002BB7
:1026400018D11B4B4FF47A722249174811F01BF92D
:1026500003461A46174B1A70154B1B68002B03D004
:10266000144B1B78002B05D1184B9B8801339AB271
:10267000164B9A800C4811F052FB144B1A88134BDE
:102680005A800D4B00221A60FA2011F07BFD27E7DB
:102690006C9500206D950020D8950020D4950020E1
:1026A000443F0020ECF2020810A600206C3F0020FE
:1026B00068950020649500205C950020343F002040
:1026C000F8F20208501F0020381700203C3F00207D
:1026D00008F30208341B0020F0B595B00CAFF86188
:1026E0007A497B4800F00EFC784800F025FC002277
:1026F000784979480BF00EF8764B9A68754B5B6811
:10270000D31A07EE903AF8EE676A724B9B6807EEB1
:10271000903AF8EE677AB7EE007A37EE877AC6EE2F
:10272000877A9FED6E7A67EE877AFCEEE77A17EE8E
:10273000903A9AB26A4B1A8000226A4966480BF0B6
:10274000EFF8644B1B781946624B5B781846614B77
:102750009B781A46624B1B880193009203460A46F7
:102760006149624829F0FAFA614BD3ED007A9FED96
:10277000617A67EE877AFDEEE77A17EE902A5E4B74
:102780001A605E4BD3ED007A9FED5A7A67EE877A36
:10279000FDEEE77A17EE902A594B1A60594BD3EDAC
:1027A000007A9FED547A67EE877AFDEEE77A17EEAE
:1027B000902A554B1A60554B1B68554A934204DDCD
:1027C000524B1B68534A93422CDD534B1B68013319
:1027D000514A1360504B1B68012B72DD3C4807F0D7
:1027E00081FA3B4807F0EEF94B4B00221A600523B3
:1027F00001220121364800F0ABF9354800F082FA99
:10280000334800F0FFFA324800F0AAFA304800F0EE
:1028100039FB01212E48FEF70FFD4FF4FA7011F03D
:10282000B1FC4EE03D4B1B686E2202FB03F33C4AB9
:102830009D18264BB3F900309C46244BB3F9023067
:102840001E46224BB3F90430BB61204BB3F9143060
:102850007B611E4BB3F916303B611C4BB3F918304A
:10286000FB60254B1A68264B1968274B1868274BC5
:102870001C68164BB3F93030BB60144BB3F93230DF
:102880007B60124BB3F934300B937B680A93BB68BF
:1028900009930894079006910592FA6804923A69A0
:1028A00003927A690292BB690193009663460F4ACC
:1028B0001C49284629F052FA184B1B680133174A65
:1028C0001360052011F05EFC0AE700BFE80200205B
:1028D000BC0300203C0300204805002000007A448F
:1028E000303F00205403002014F302081C1F002076
:1028F0004C3F002000401C465C3F0020503F002021
:10290000603F0020543F0020643F0020583F0020DB
:102910008F5F0100B0AD0100683F00205C95002092
:102920006C3F002030F3020880B582B000AF7860C1
:10293000094B1B684FF0FF31184611F087FD074B1C
:1029400000221A70054B00225A704FF47A72034924
:1029500003480DF023F9EBE7E01600204C170020A8
:10296000F007002080B582B000AF786040F6B83044
:1029700011F008FC0B480CF005FEFEF7E1FCF0EE50
:10298000407A094BC3ED007A012011F0FBFBFEF702
:10299000FBFC0346054A13604FF47A7011F0F2FB1A
:1029A000EBE700BFB0070020543F0020583F002055
:1029B00080B582B000AF78601E4B5B78002B07D1EA
:1029C0001D4B1B68184611F0A7FD1C480DF088F937
:1029D000012011F0D7FB1A4B1B680133184A136012
:1029E000174B1B6841F65832934219DD144B0022F5
:1029F0001A60114B1B68184611F08EFD114A0D4BE1
:102A0000104619464FF47A731A4628F019F80E4BFF
:102A10001B8801339AB20C4B1A80094B00221A60B2
:102A2000074B1B680133064A1360012011F0AAFB13
:102A3000C2E700BF4C170020E0160020F00700207E
:102A400060950020341B00203C3F002080B584B0FE
:102A500000AF3B4600221A605A609A60DA6005F0C7
:102A60005FFE01233B7000237B7000237B601B23F0
:102A70003B7200237B720023BB720323FB72002393
:102A80003B7300237B730023BB730023FB733B4624
:102A9000184605F07DFE01233B7001237B704FF04B
:102AA00010437B6017233B7200237B720023BB72B1
:102AB0000323FB7200233B7300237B730123BB734F
:102AC0000023FB733B46184605F062FE042005F028
:102AD0003FFE00BF1037BD4680BD000080B582B00C
:102AE00000AF78607B681B680F4A934201D105F004
:102AF000A3FC7B681B680D4A934210D10C48FEF77B
:102B0000C3FD0B4B1B680B4A1360094B5B680A4AF9
:102B100013600A4B1B8801339AB2084B1A8000BF1E
:102B20000837BD4680BD00BF0010004000200040B7
:102B3000E00200204C3F0020503F0020443F002096
:102B400080B400AF00BFBD465DF8047B7047000055
:102B500080B586B004AF7860084611461A46034631
:102B6000FB700B46BB7013467B70FB78032B1BD8A6
:102B700001A252F823F000BF892B0008912B000816
:102B8000992B0008A12B0008564B574A1A600CE0FD
:102B9000544B564A1A6008E0524B554A1A6004E0FA
:102BA000504B544A1A6000E000BFBB78032B1FD87B
:102BB00001A252F823F000BFC92B0008D32B000854
:102BC000DD2B0008E72B00084B4B4FF08D421A60BD
:102BD0000FE0494B4FF08C421A600AE0464B4FF031
:102BE0008B421A6005E0444B4FF08A421A6000E0C5
:102BF00000BF0A23029301230193404B009301235A
:102C00007522D021786807F0B1F93D4B00221A7087
:102C10003A4B1B78682B5FD1394B00221A700A237C
:102C2000029301230193364B009301236B22D021A1
:102C3000786807F087F80A2005F01EFC304B072261
:102C40001A700A230293012301932D4B0093012351
:102C50001922D021786807F075F80A2005F00CFCDD
:102C6000274A7B7813700A23029301230193244B94
:102C7000009301231A22D021786807F063F80A2014
:102C800005F0FAFBFB78DB00DAB21D4B1A700A2361
:102C90000293012301931A4B009301231B22D0219D
:102CA000786807F04FF80A2005F0E6FBBB78DB00F8
:102CB000DAB2134B1A700A23029301230193104BCB
:102CC000009301231C22D021786807F03BF80A20EA
:102CD00005F0D2FB002300E0012318460837BD466B
:102CE00080BD00BF040000200000034300008342B9
:102CF0003333034233338341080000206E950020B4
:102D00008495002080B586B004AF7860134B002214
:102D10001A700A23029301230193104B009301239D
:102D20006A22D021786807F00DF8012005F0A4FB95
:102D30000A4B02221A700A23029301230193074BC4
:102D4000009301233722D021786806F0FBFF012091
:102D500005F092FB00BF0837BD4680BD849500207A
:102D600080B586B004AF7860254B00221A700A2324
:102D7000029301230193224B009301233722D02198
:102D8000786806F0DFFF012005F076FB1C4B22225D
:102D90001A700A23029301230193194B0093012314
:102DA0006A22D021786806F0CDFF012005F064FB8F
:102DB000134B0D221A700A23029301230193104B27
:102DC000009301232422D021786806F0BBFF012064
:102DD00005F052FB0A4B00221A700A2302930123CA
:102DE0000193074B009301236B22D021786806F0F2
:102DF000A9FF012005F040FB00BF0837BD4680BD9C
:102E00008495002080B586B004AF78601C4B1822F2
:102E10001A700A23029301230193194B0093012393
:102E200000223C21786806F08DFF012005F024FB8C
:102E3000134B20221A700A23029301230193104B93
:102E40000093012301223C21786806F07BFF0120DA
:102E500005F012FB0A4B00221A700A230293012389
:102E60000193074B0093012302223C21786806F06E
:102E700069FF012005F000FB00BF0837BD4680BD9B
:102E80008495002080B586B004AF78601C4B9E22EC
:102E90001A700A23029301230193194B0093012313
:102EA0002522D021786806F04DFF012005F0E4FAD4
:102EB000134B03221A700A23029301230193104B30
:102EC000009301232622D021786806F03BFF0120E1
:102ED00005F0D2FA0A4B86221A700A2302930123C4
:102EE0000193074B009301232722D021786806F035
:102EF00029FF012005F0C0FA00BF0837BD4680BD9C
:102F00008495002080B586B004AF78603960642372
:102F1000029314230193064B009301233B22D021FB
:102F2000786807F023F800BF0837BD4680BD00BFB2
:102F3000709500200000000080B582B000AF78607E
:102F4000974B1B781B021AB2954B5B781BB213434D
:102F50001BB29BB25B429BB21AB27B681A80904B49
:102F60009B781B021AB28E4BDB781BB213431AB24A
:102F70007B685A808A4B1B791B021AB2884B5B799B
:102F80001BB213431AB27B689A80854B1B7A1B02D3
:102F90001AB2834B5B7A1BB213431AB27B689A82D4
:102FA0007F4B9B7A1B021AB27D4BDB7A1BB2134319
:102FB0001BB29BB25B429BB21AB27B68DA82784B3F
:102FC0001B7B1B021AB2764B5B7B1BB213431BB2FB
:102FD0009BB25B429BB21AB27B681A83704B9B7B9D
:102FE0001B021AB26E4BDB7B1BB213431AB27B6817
:102FF0001A866B4B1B7C1B021AB2694B5B7C1BB2A3
:1030000013431BB29BB25B429BB21AB27B689A8697
:10301000634B9B7C1B021AB2614BDB7C1BB21343DC
:103020001BB29BB25B429BB21AB27B685A867B682A
:10303000B3F914309AB27B68B3F91A309BB2D31A41
:103040009BB21AB27B689A827B68B3F916309AB247
:103050007B68B3F91C309BB2D31A9BB21AB27B685F
:10306000DA827B68B3F918309AB27B68B3F91E3004
:103070009BB2D31A9BB21AB27B681A837B68B3F9EE
:10308000143007EE903AB8EEE77A464BD3ED007A6B
:10309000C7EE276A16EE900AFDF776FA3EA3D3E94B
:1030A0000023FDF7C9FA02460B4610461946FDF704
:1030B000BBFD02467B681A627B68B3F9163007EEE7
:1030C000903AB8EEE77A374BD3ED007AC7EE276A2D
:1030D00016EE900AFDF758FA2FA3D3E90023FDF767
:1030E000ABFA02460B4610461946FDF79DFD024617
:1030F0007B685A627B68B3F9183007EE903AB8EEF5
:10310000E77A284BD3ED007AC7EE276A16EE900ACD
:10311000FDF73AFA20A3D3E90023FDF78DFA024622
:103120000B4610461946FDF77FFD02467B689A6202
:103130007B68B3F9003007EE903AF8EEE76A1A4B75
:1031400093ED007AC6EE877A7B68C3ED027A7B68DE
:10315000B3F9023007EE903AF8EEE76A124B93EDBE
:10316000007AC6EE877A7B68C3ED037A7B68B3F991
:10317000043007EE903AF8EEE76A0B4B93ED007AD5
:10318000C6EE877A7B68C3ED047A00BF0837BD4678
:1031900080BD00BFAFF3008011DD52A246DF913F3A
:1031A00070950020040000200800002080B582B047
:1031B00000AF114B1B6C104A43F0805313640E4B4D
:1031C0001B6C03F080537B607B680B4B5B6C0A4A83
:1031D00043F480435364084B5B6C03F480433B60CF
:1031E0003B6800220F216FF0010005F05CFA00BF80
:1031F0000837BD4680BD00BF0038024080B485B0AE
:1032000000AF78607B681B680A4A93420BD10A4B77
:103210001B6B094A43F480531363074B1B6B03F486
:103220008053FB60FB6800BF1437BD465DF8047B2C
:10323000704700BF003002400038024080B584B0C3
:1032400000AF78607B681B680D4A934213D10D4B29
:103250001B6B0C4A43F4000313630A4B1B6B03F410
:103260000003FB60FB68002205215A2005F01BFAD1
:103270005A2005F034FA00BF1037BD4680BD00BFAC
:1032800000B002400038024080B58CB000AF7860DA
:1032900007F11C0300221A605A609A60DA601A6112
:1032A0007B681B68374A934239D1374B1B6B364AD0
:1032B00043F002031363344B1B6B03F00203BB6147
:1032C000BB694FF44073FB6112233B6201237B62B5
:1032D0000323BB620423FB6207F11C0319462B483E
:1032E00006F086F9284B1B6C274A43F4001313643D
:1032F000254B1B6C03F400137B617B6900220521C5
:103300001F2005F0D0F91F2005F0E9F90022052162
:10331000202005F0C8F9202005F0E1F92DE07B68B8
:103320001B681B4A934228D1174B1B6B164A43F06C
:1033300080031363144B1B6B03F080033B613B69F9
:103340004FF4C073FB6112233B6201237B620323B2
:10335000BB620423FB6207F11C0319460D4806F00B
:1033600047F9094B1B6C084A43F400031364064BEE
:103370001B6C03F40003FB60FB6800BF3037BD46E5
:1033800080BD00BF005400400038024000040240ED
:10339000005C0040001C024080B582B000AF786045
:1033A0007B681B68184A934216D1184B1B6C174A4E
:1033B00023F4001313644FF48071154806F0C4FA27
:1033C0004FF40071124806F0BFFA1F2005F095F97E
:1033D000202005F092F913E07B681B680D4A9342A8
:1033E0000ED10A4B1B6C094A23F40003136480219D
:1033F000094806F0A9FA4FF48071074806F0A4FACC
:1034000000BF0837BD4680BD005400400038024070
:1034100000040240005C0040001C024080B58EB0F9
:1034200000AF786007F1240300221A605A609A60A6
:10343000DA601A617B681B68554A934240F0A380AA
:10344000544B5B6C534A43F080635364514B5B6C49
:1034500003F080633B623B6A4E4B1B6B4D4A43F06B
:10346000100313634B4B1B6B03F01003FB61FB69F1
:10347000484B1B6B474A43F400731363454B1B6B6C
:1034800003F40073BB61BB69424B1B6B414A43F4BD
:10349000806313633F4B1B6B03F480637B617B6929
:1034A0003C4B1B6B3B4A43F040031363394B1B6B94
:1034B00003F040033B613B69364B1B6B354A43F4D9
:1034C00080731363334B1B6B03F48073FB60FB68E7
:1034D00010237B620223BB620023FB6200233B6359
:1034E0000E237B6307F1240319462B4806F080F86E
:1034F0004EF6FF737B620223BB620023FB62002354
:103500003B630E237B6307F124031946234806F02F
:103510006FF8F7237B620223BB620023FB62002368
:103520003B630E237B6307F1240319461C4806F016
:103530005FF84FF480537B620223BB620023FB627F
:1035400000233B6309237B6307F1240319461548D5
:1035500006F04EF84FF446437B620223BB62002321
:10356000FB6200233B630E237B6307F124031946B0
:103570000D4806F03DF800220521582005F093F88B
:10358000582005F0ACF800BF3837BD4680BD00BFFD
:103590000068014000380240001002400024024050
:1035A00000280240001802400020024080B58CB084
:1035B00000AF786007F11C0300221A605A609A601D
:1035C000DA601A617B681B683B4A934270D13B4BBF
:1035D0009B6B3A4A43F002039363384B9B6B03F0B7
:1035E0000203BB61BB69354B1B6B344A43F01003CC
:1035F0001363324B1B6B03F010037B617B692F4B12
:103600001B6B2E4A43F0020313632C4B1B6B03F01E
:1036100002033B613B69294B1B6B284A43F00803BB
:103620001363264B1B6B03F00803FB60FB6804234A
:10363000FB6102233B6200237B620323BB620923FD
:10364000FB6207F11C0319461D4805F0D1FF40231A
:10365000FB6102233B6200237B620323BB620A23DC
:10366000FB6207F11C031946164805F0C1FF04234D
:10367000FB6102233B6200237B620323BB620923BD
:10368000FB6207F11C0319460E4805F0B1FF4FF429
:103690006053FB6102233B6200237B620323BB6216
:1036A0000923FB6207F11C031946074805F0A0FF38
:1036B00000BF3037BD4680BD001000A0003802407A
:1036C0000010024000040240000C024080B582B0AD
:1036D00000AF78607B681B680C4A934212D10C4B98
:1036E0009B6B0B4A23F0020393630421094806F005
:1036F0002BF94421084806F027F94FF46051074898
:1037000006F022F900BF0837BD4680BD001000A0BA
:10371000003802400010024000040240000C024049
:1037200080B483B000AF78607B681B68074A93421F
:1037300005D1074B1B6F064A43F40043136700BFD4
:103740000C37BD465DF8047B704700BF0028004081
:103750000038024080B58AB000AF786007F11403EA
:1037600000221A605A609A60DA601A617B681B68EE
:10377000664A934240F0C580654B5B6C644A43F4F3
:1037800000635364624B5B6C03F400633B613B6911
:103790005F4B1B6B5E4A43F0040313635C4B1B6B74
:1037A00003F00403FB60FB68594B1B6B584A43F062
:1037B00008031363564B1B6B03F00803BB60BB6825
:1037C0004FF4F8537B610223BB610023FB610323A9
:1037D0003B620C237B6207F1140319464D4805F048
:1037E00007FF04237B610223BB610023FB610323EA
:1037F0003B620C237B6207F114031946464805F02F
:10380000F7FE464B464A1A60444B4FF000625A603E
:10381000424B00229A60414B0022DA603F4B4FF44A
:1038200080621A613D4B4FF480525A613B4B4FF41A
:1038300080429A61394B2022DA61384B4FF40032D2
:103840001A62364B04225A62344B03229A62334B7B
:103850004FF40002DA62314B4FF400121A632F4822
:1038600005F0C4F80346002B01D0FFF769F97B6827
:103870002A4A1A64294A7B6893632A4B2A4A1A60A7
:10388000284B4FF000625A60264B40229A60254B2D
:103890000022DA60234B4FF480621A61214B4FF40F
:1038A00080525A611F4B4FF480429A611D4B202277
:1038B000DA611C4B4FF400321A621A4B04225A622E
:1038C000184B03229A62174B4FF40002DA62154B31
:1038D0004FF400121A63134805F088F80346002BD2
:1038E00001D0FFF72DF97B680E4ADA630D4A7B6839
:1038F000936300220521312004F0D5FE312004F02D
:10390000EEFE00BF2837BD4680BD00BF002C014041
:103910000038024000080240000C0240EC05002084
:10392000586402404C060020A064024080B58AB072
:1039300000AF786007F1140300221A605A609A60A1
:10394000DA601A617B681B68464A934240F08580C2
:10395000454B5B6C444A43F480135364424B5B6CAD
:1039600003F480133B613B693F4B1B6B3E4A43F0C2
:10397000200313633C4B1B6B03F02003FB60FB68CD
:10398000394B1B6B384A43F080031363364B1B6B78
:1039900003F08003BB60BB684FF440737B6102237C
:1039A000BB610023FB6103233B6205237B6207F1BC
:1039B000140319462D4805F01BFE40237B610223AA
:1039C000BB610023FB6103233B6205237B6207F19C
:1039D00014031946264805F00BFE264B264A1A60AA
:1039E000244B4FF060625A60224B00229A60214BB8
:1039F0000022DA601F4B4FF480621A611D4B0022D7
:103A00005A611C4B00229A611A4B4FF48072DA61A2
:103A1000184B00221A62174B04225A62154B0322DC
:103A20009A62144B0022DA62124B00221A63114888
:103A300004F0DCFF0346002B01D0FFF781F87B6820
:103A40000C4A9A650B4A7B68936300220521552036
:103A500004F029FE552004F042FE00BF2837BD4681
:103A600080BD00BF005001400038024000140240F9
:103A7000001C0240100700208864024080B584B01A
:103A800000AF78607B681B681A4A934214D11A4BC6
:103A90001B6C194A43F020031364174B1B6C03F093
:103AA0002003FB60FB6800220521372004F0FBFDAA
:103AB000372004F014FE18E07B681B680F4A93421D
:103AC00013D10D4B1B6C0C4A43F4807313640A4BE7
:103AD0001B6C03F48073BB60BB68002205212D20A2
:103AE00004F0E1FD2D2004F0FAFD00BF1037BD46C3
:103AF00080BD00BF0014004000380240002000409C
:103B000080B58AB000AF786007F1140300221A6014
:103B10005A609A60DA601A617B681B68374A934280
:103B200068D1374B5B6C364A43F020035364344B07
:103B30005B6C03F020033B613B69314B1B6B304AEC
:103B400043F0040313632E4B1B6B03F00403FB6071
:103B5000FB68C0237B610223BB610023FB6103235D
:103B60003B6208237B6207F114031946254805F0E0
:103B70003FFD254B254A1A60234B4FF020625A60C7
:103B8000214B00229A60204B0022DA601E4B4FF43A
:103B900080621A611C4B00225A611B4B00229A6101
:103BA000194B4FF48072DA61174B4FF440321A62AE
:103BB000154B04225A62144B03229A62124B0022C4
:103BC000DA62114B00221A630F4804F00FFF03461C
:103BD000002B01D0FEF7B4FF7B680B4ADA660A4A75
:103BE0007B68936300220521472004F05CFD472099
:103BF00004F075FD00BF2837BD4680BD00140140AC
:103C0000003802400008024070080020286402408A
:103C100080B586B000AF3B1D00221A605A609A60E2
:103C2000DA601A613A4B1B68002B6DD1384B0122C8
:103C30001A60384B9B6B374A43F001039363354B53
:103C40009B6B03F001033B603B684FF683737B6023
:103C50000223BB600023FB6003233B610C237B61D9
:103C60003B1D19462C4805F0C3FC48F233137B601A
:103C70000223BB600023FB6003233B610C237B61B9
:103C80003B1D1946254805F0B3FC4CF203737B60DD
:103C90000223BB600023FB6003233B610C237B6199
:103CA0003B1D19461E4805F0A3FC4FF63F037B6001
:103CB0000223BB600023FB6003233B610C237B6179
:103CC0003B1D1946174805F093FC28237B6002230F
:103CD000BB600023FB6003233B610C237B613B1D26
:103CE0001946114805F084FC08237B600223BB6061
:103CF0000023FB6003233B610C237B613B1D1946C2
:103D00000A4805F075FC00E000BF1837BD4680BDCD
:103D10008895002000380240001002400018024040
:103D2000000C024000140240001C02400008024047
:103D300080B582B000AF7860FFF76AFF00BF083738
:103D4000BD4680BD80B58CB000AF78600023FB62BB
:103D50000023BB6200227968362004F0A4FC3620E0
:103D600004F0BDFC1F4B1B6C1E4A43F01003136490
:103D70001C4B1B6C03F01003FB60FB6807F1100287
:103D800007F114031146184608F068FF08F03EFFDB
:103D900003465B00FB62FB6A134AA2FB03239B0CF6
:103DA000013BBB62114B124A1A60104B40F2E732E2
:103DB000DA600E4ABB6A53600C4B00221A610B4B4F
:103DC00000229A6009480BF0B2FB0346002B04D195
:103DD00006480BF0D7FB034600E0012318463037B6
:103DE000BD4680BD0038024083DE1B438C95002019
:103DF0000010004080B400AF00BFBD465DF8047BFA
:103E0000704780B500AF04F086FCFEE780B400AFD9
:103E1000FEE780B400AFFEE780B400AFFEE780B4F9
:103E200000AF00BFBD465DF8047B704780B500AFB2
:103E3000024806F0B5F900BF80BD00BFBC030020FA
:103E400080B500AF024806F0C5F900BF80BD00BFD5
:103E5000BC03002080B500AF02480BF0BDFB00BFE3
:103E600080BD00BFB007002080B500AF02480AF057
:103E7000A9F800BF80BD00BF6805002080B500AF75
:103E800002480BF0A9FB00BF80BD00BF8C9500204D
:103E900080B500AF02480BF09FFB00BF80BD00BFA4
:103EA0007007002080B500AF024804F03FFF00BF5C
:103EB00080BD00BF7008002080B500AF024804F04C
:103EC00035FF00BF80BD00BFEC05002080B500AF0E
:103ED000024804F02BFF00BF80BD00BF1007002088
:103EE00080B500AF024804F021FF00BF80BD00BFD5
:103EF0004C06002080B500AF02480BF05FFF00BF0A
:103F000080BD00BFF007002080B500AF02480BF075
:103F1000EFF900BF80BD00BFAC06002080B500AF48
:103F2000024807F0B1F900BF80BD00BF5404002073
:103F300080B500AF024805F0B9F900BF80BD00BFF1
:103F40007C03002080B400AF01231846BD465DF815
:103F5000047B704780B582B000AF7860396026F08E
:103F600029FC034616221A604FF0FF331846083723
:103F7000BD4680BD80B582B000AF78604FF0FF31A4
:103F80007868FFF7E7FFFEE780B586B000AFF8601E
:103F9000B9607A6000237B610AE0AFF300800146DC
:103FA000BB685A1CBA60CAB21A707B6901337B6164
:103FB0007A697B689A42F0DB7B6818461837BD4601
:103FC00080BD80B586B000AFF860B9607A6000232C
:103FD0007B6109E0BB685A1CBA601B781846AFF3D6
:103FE00000807B6901337B617A697B689A42F1DBEF
:103FF0007B6818461837BD4680BD80B483B000AFDB
:1040000078604FF0FF3318460C37BD465DF8047BEF
:10401000704780B483B000AF786039603B684FF47C
:1040200000525A60002318460C37BD465DF8047BE9
:10403000704780B483B000AF7860012318460C3716
:10404000BD465DF8047B704780B485B000AFF86072
:10405000B9607A60002318461437BD465DF8047BCA
:104060007047000080B586B000AF7860144A154BE9
:10407000D31A7B617B693B61134B1B68002B02D118
:10408000114B124A1A60104B1A687B6813443A6944
:104090009A4207D226F08EFB03460C221A604FF09C
:1040A000FF3309E0084B1B68FB60074B1A687B680D
:1040B0001344054A1360FB6818461837BD4680BD97
:1040C00000000520000A0000CC950020706001204F
:1040D00080B500AF044905480FF09CFE03461A4620
:1040E000034B1A7000BF80BDD495002014F5020860
:1040F000D095002080B400AF00231846BD465DF87F
:10410000047B704780B582B000AF0023FB7100F0E4
:1041100096F80346012B01D0022312E00B4809F068
:10412000DFFC0346FB71FB79002B09D14FF40061E2
:1041300006480AF097FA0346002B01D00123FB71D1
:10414000FB7918460837BD4680BD00BF68050020D2
:1041500080B586B000AFF860B9607A600023FB7567
:104160007B68BA68F968064809F052FD0346002BDF
:1041700001D00123FB75FB7D18461837BD4680BD75
:104180006805002080B586B000AFF860B9607A603D
:104190000023FB757B68BA68F968064809F024FEBD
:1041A0000346002B01D00123FB75FB7D1846183711
:1041B000BD4680BD6805002080B500AF05480AF007
:1041C000CDFA0346042B14BF01230023DBB21846AB
:1041D00080BD00BF6805002080B582B000AF786068
:1041E000796803480AF012FA00BF0837BD4680BD5F
:1041F0006805002080B582B000AF786000F018F844
:1042000000BF0837BD4680BD80B582B000AF786082
:1042100000F0B4F900BF0837BD4680BD80B582B05C
:1042200000AF786000F0BCF900BF0837BD4680BD24
:1042300080B400AF00BFBD465DF8047B704780B519
:1042400082B000AF0123FB7100F00CF80346002B95
:1042500001D10023FB71FB79DBB218460837BD465C
:1042600080BD000080B582B000AF0123FB714FF428
:104270000051064805F074FC0346002B01D00023D2
:10428000FB71FB7918460837BD4680BD0008024027
:1042900080B584B000AF78600FF0A6FEF86006E04D
:1042A000FFF78AFF0346002B01D1002309E00FF03E
:1042B0009BFE0246FB68D31A7A689A42F0D84FF008
:1042C000FF3318461037BD4680BD000080B582B070
:1042D00000AF0346FB710B4B01221A70FFF76CFF16
:1042E0000346002B07D1074B1B78DBB223F00103F9
:1042F000DAB2044B1A70034B1B78DBB2184608374E
:10430000BD4680BD0C00002080B582B000AF0346E2
:10431000FB711C4B01221A700FF00EFE0346022B9C
:1043200029D1FFF7EFFE0346002B07D1FB79184692
:10433000FFF7CCFF03461A46124B1A70114B1B783D
:10434000DBB2012B17D0104B1B68002B07D10022CA
:1043500002210A2010F06EF903460B4A13600A4B43
:104360001B68002B07D1074B1B78DBB243F001031E
:10437000DAB2044B1A70034B1B78DBB218460837CD
:10438000BD4680BD0C00002040B6002080B582B044
:1043900000AF0346FB71FB791846FFF797FF034612
:1043A00018460837BD4680BD80B588B000AFB960FB
:1043B0007A603B600346FB730123FB7747F2305082
:1043C000FFF766FF0346002B01DAFB7F2FE03A6818
:1043D0007968B868FFF7BCFE0346BB77BB7F002B4C
:1043E00024D1154B186807F1120147F2305300220F
:1043F00010F01AFAB861BB69002B17D17B8A012B28
:1044000014D10FF0F1FD786107E0FFF7D5FE034608
:10441000002B02D10023FB7708E00FF0E5FD0246F8
:104420007B69D31A47F22F529342EED9FB7F18468D
:104430002037BD4680BD00BF40B6002080B588B0A3
:1044400000AFB9607A603B600346FB730123FB77E2
:1044500047F23050FFF71CFF0346002B01DAFB7FC9
:104460002DE03A687968B868FFF78CFE0346002BA8
:1044700024D1154B186807F1120147F2305300227E
:1044800010F0D2F9B861BB69002B17D17B8A022BDF
:1044900014D10FF0A9FD786107E0FFF78DFE034608
:1044A000002B02D10023FB7708E00FF09DFD0246B0
:1044B0007B69D31A47F22F529342EED9FB7F1846FD
:1044C0002037BD4680BD00BF40B6002080B58CB00F
:1044D00000AF03463A60FB710B46BB71012387F8BE
:1044E0002F30254B1B78DBB203F00103002B01D0EA
:1044F00003233CE0BB79032B34D801A252F823F00C
:104500001145000819450008314500084B450008D1
:10451000002387F82F3028E007F10C031846FFF737
:104520005BFE7A6A3B681A60002387F82F301CE034
:1045300007F10C031846FFF74FFEBB6A9AB23B68BF
:104540001A80002387F82F300FE007F10C0318467C
:10455000FFF742FEBB6A5A0A3B681A60002387F8DD
:104560002F3002E0042387F82F3097F82F301846B9
:104570003037BD4680BD00BF0C00002080B582B042
:1045800000AF0223FB80054B1868B91D00230022F1
:1045900010F0D6F800BF0837BD4680BD40B60020F9
:1045A00080B582B000AF0123FB80054B1868B91DB0
:1045B0000023002210F0C4F800BF0837BD4680BDBC
:1045C00040B60020DFF834D0002103E00C4B5B58EC
:1045D000435004310B480C4B42189A42F6D30B4A15
:1045E00002E0002342F8043B094B9A42F9D303F05E
:1045F000F9FC26F0EDF9FDF73FF9704700000520C2
:10460000501C030800000020A0020020A00200208F
:104610006C600120FEE780B400AF00BFBD465DF8CE
:10462000047B704780B500AF00F0BEFC00F04CFC8E
:1046300000BF80BD80B582B000AF786000F0B6FCEE
:1046400000BF0837BD4680BD406870474160704775
:104650004FF0E022D2F8FC3D43F08073C2F8FC3DFD
:10466000054B064AD3F8B01F0A43C3F8B02F1A68A7
:1046700042F001021A607047001000E055CEACC550
:10468000511A01EB5301B1FBF3F07047014B58682D
:10469000704700BF001000E0704710B504460C21C1
:1046A00026F027F8204610BD036810B51B690446A4
:1046B00031B19847A26863689B1A1844606010BDC6
:1046C0009847A060FBE70000024B7020024A13608D
:1046D000DB6818471C00002044B60020704710B566
:1046E0000446042126F005F8204610BD37B50A4DD2
:1046F0000C462B6813B9002003B030BD1B69702035
:104700000192984701990028F5D02B687020224625
:104710005B6998470120EFE744B600207FB501238D
:104720008DF817204FF47A72CDE901320DF117029E
:1047300000920A460146064805F004FB28B10448E9
:1047400005F0D0FA024805F03DFA07B05DF804FB29
:10475000080400207FB500230A464FF47A718DF8D3
:1047600017300123CDE901310DF117010091014608
:10477000074805F0FBFB28B1054805F0B3FA0448EB
:1047800005F020FA9DF8170007B05DF804FB00BFA4
:10479000080400207047704770477047012380F875
:1047A000741080F8753070470020704741640039FC
:1047B000024B18BF01211970704700BFC75D01206F
:1047C00000207047836B0BB10846184770474FF6BF
:1047D000FF707047406803689B6918477047000086
:1047E00038B5044600F0AAFC0A4A4FF0404123685D
:1047F0002046D3F88850084BA8470023074D84F87B
:104800004A302846FFF724FF0123256184F86C30E5
:1048100038BD00BF00FC03C000F807C048B6002048
:1048200000F056BC00F05ABC70B500F0ADFC104969
:104830000023C1F88430BFF34F8FD1F8803043F6A6
:10484000E074C3F3C900C3F34E335B0103EA04060B
:10485000024646EA8275013AC1F87452F9D2203B09
:1048600013F1200FF2D1BFF34F8FBFF36F8F70BDE5
:1048700000ED00E000F08ABC00F006BC00F088BC4F
:1048800000F090BC00F00ABC10B5044614F090FA99
:1048900023682046D3F8AC30BDE81040184713F029
:1048A000DFBC10B504467C2125F023FF204610BD57
:1048B00090F877301BB1406803681B6818471846AA
:1048C0007047000090F834100D4B10B590F874400C
:1048D0001A788C4209D03AB90A490B4A08881488D8
:1048E000108001220C801A7010BD002AFCD0064AEC
:1048F0000449148808880C8010800022F3E700BF68
:10490000C05D0120BE5D0120BC5D012070B50D467B
:10491000194635B9094B40F2D221094A094825F018
:1049200017FFC0E90F52003A074B18BF01221A7057
:104930000368BDE87040D3F88C30184768F502086A
:10494000A0F50208EEF50208C65D012008B5094B86
:104950001B888B4203D8084B1B88934205D9074B11
:104960009E21074A074825F0F3FE074B1980074BA5
:104970001A8008BDBC5D0120BE5D012033F602082F
:1049800096F60208EEF50208C25D0120C45D012022
:10499000014608B5034B186801B1012114F022FA51
:1049A000012008BDC85D0120034B00225A609A60B7
:1049B000024A1A60704700BF48B6002030F502086E
:1049C0000121002208B508460FF0A4FC0A4B18602C
:1049D00028B90A4B29210A4A0A4825F0B9FE0022C3
:1049E000042101200FF026FE074B186018B9074B71
:1049F0002D21034AF0E708BD58B60020B4F702089D
:104A0000FDF702082CF8020854B600206DF80208E1
:104A1000024B4FF0FF3118680FF018BD58B6002058
:104A2000014B18680FF078BD58B60020024B0021EA
:104A300018680FF00BBD00BF58B60020FFF7F0BF9D
:104A40000023034803491A4600680FF079BE00BFEF
:104A500054B600201000002013B50023074C01A914
:104A60001A4620680FF0E0FE4FF0FF33002201A944
:104A700020680FF0D9FE02B010BD00BF54B6002070
:104A800003685B6C18470120704703689B6A1847EE
:104A90000D4B82B01A6B42F400021A631A6B02F4D7
:104AA00000020192019A1A6942F400021A611A691D
:104AB00022F400021A61054B054A1A614FF0806228
:104AC000044B9A6002B07047003802407C0300201B
:104AD000194B000800E100E040F2EF3070470000A1
:104AE000054B4FF080620360044BC3F88820BFF38E
:104AF0004F8FBFF36F8F704700FA020800E100E0AC
:104B000010B504464FF45A61FFF7EAFF204625F03E
:104B1000F0FD204610BD0000024B1B68586803687A
:104B20005B691847C85D012070B504460A4B0C301C
:104B300000262546602260602672667245F8203B9A
:104B4000294614F08BFA04F55A63EE602435AB4223
:104B5000FBD1204670BD00BF00FA020808B50B2942
:104B60000BD8DFE801F01206100A0A0A0A08080842
:104B70000808012008BD0520FCE7054B6721054A10
:104B8000054825F0E5FD0020F4E70220F2E700BF2C
:104B9000AFF80208CAF8020814F9020808B50A2991
:104BA00009D8DFE801F010060E0808080806060616
:104BB0000600012008BD054B8821054A054825F05F
:104BC000C7FD0020F6E70220F4E700BFAFF80208B7
:104BD00053F9020814F902082DE9F8434F7F0C46F7
:104BE00081463946FFF7BAFF94F81E8005464846CD
:104BF0004146FFF7B3FF414606464846FFF7CEFF62
:104C0000A18A628B424B521A1A649A61228B521A01
:104C10001A61E28A586342EA014220695A64626872
:104C2000D863DA60216894F81CC080294FEA0C62CE
:104C300026D010D8202945EA020462D0402960D04D
:104C400004295ED02A43324B474542F40032DA61F0
:104C50005BD0304A40E0B1F5807F07D0B1F5007FEE
:104C6000F0D142F4003242F0090203E042F4003293
:104C700042F00A02DA61E2681A625E6258612AE072
:104C8000A4682A43211D42F40032D962DA612278F5
:104C90005E62586142B1012A21D01F4B4FF48971E5
:104CA0001E4A1F4825F054FDDA690120618822F46C
:104CB0007F42013922F0100242EA0122DA61144BEC
:104CC000DA6942F02002DA61DA699206FCD4102235
:104CD0009A600028BDD0134A1A60BDE8F883628844
:104CE000BCF1FF00D96902F1FF3418BF012021F4A3
:104CF0007F4222F0100242EA042242F01002DA61FE
:104D0000DDE744F40034DC61B7E740F20122E3E779
:104D100000B00240010201009EF90208B8F9020841
:104D200014F902080102020070B50C46897FFFF7F2
:104D300035FF174BA68AE18A628B41EA0641256955
:104D4000921B58635964DD631A642668E168082E73
:104D50000DD19A611A6158620E4A207F42EA0062C0
:104D6000DA610D4A19625D61DD601A6070BD002272
:104D7000D86148091A610A0A00F4FC60C1F3C40151
:104D800002F4784202430A439A63044AEDE700BF03
:104D900000B002400900010001020200010203000C
:104DA000012070470C2070470C2303FB01000830E2
:104DB00070470C2303FB0100083070470120704747
:104DC0004FF4EC6070474FF4EC6303FB01000830D4
:104DD00070474FF4EC6303FB01000830704701207B
:104DE00070471020704700EB01100830704700EB4F
:104DF000011008307047084600F00ABB034B10B59D
:104E00000446036012F083FF204610BDB8FA020882
:104E100010B50446FFF7F2FF1421204625F069FC87
:104E2000204610BD034B10B50446036012F06FFF1F
:104E3000204610BD84FA020810B50446FFF7F2FFC1
:104E40004FF4ED61204625F054FC204610BD0000D3
:104E5000034B10B50446036012F059FF204610BD05
:104E600050FA020810B50446FFF7F2FF1821204659
:104E700025F03FFC204610BD084B10B504460360EA
:104E800000F29470FFF7BAFF04F12C00FFF7CAFF9D
:104E900004F11400FFF7DCFF204610BDECFA020815
:104EA00008B50248FFF7E8FF08BD00BF60B6002064
:104EB00010B50446FFF7E0FF40F60811204625F044
:104EC00018FC204610BD00002DE9F34100F0D6F992
:104ED0000024054600F0D6F923460146224628461E
:104EE000009419F00FFE254B254A2046254D1A60E7
:104EF00002F03EFB244819F06DFD2B78BFF35B8F69
:104F0000DB0735D4284625F0F6FB88B31F4C204B31
:104F100004F2AC7604F1140004F12C0804F2947746
:104F200023606060C4F80880E760266112F0F0FE3C
:104F3000184B4046636112F0EBFE174B3846E362B4
:104F400012F0E6FE154B04F5F560C4F8943702F054
:104F500091FB224604F5F561304602F081FB3046B4
:104F600000F056FA0E4825F011FC284625F0CFFB3C
:104F70000C4802B0BDE8F041FFF732BC245E0120CE
:104F800088CD00205CB600201400002060B6002010
:104F9000ECFA020850FA020884FA0208B8FA020889
:104FA000A14E00080CCD002070470000014813F00E
:104FB000C0B900BF0CCD002070B5234E234B244C4C
:104FC0003046244D2360FFF7AFFD28461CF0A6FEB7
:104FD000214B00224FF4807120481A861A6683F80C
:104FE0006C201A67DC60C3E912121D49C3E919126B
:104FF0004FF080715967012183F8781019490B60CF
:105000004FF4F0710180184801804FF488711748FF
:10501000C3E90422C3E90622C3E90822C3E90A223C
:10502000C3E90E22C3E91022C3E91422C3E9162200
:10503000C3E9016501800E4883F8342001800D49E1
:105040000A700D4A1A6070BD6CBF002058F5020846
:1050500068BF00208CCD00200CCD0020BC5D01205D
:1050600001000001C85D0120C25D0120BE5D01207C
:10507000C45D0120C05D0120E4F602080148FFF78D
:105080002FBD00BF6CBF0020034B902283F85A2332
:1050900083F85823704700BF00E100E0094A0A493D
:1050A000D3680A48C3F30A03013B9BB20B80116922
:1050B000C1F30A01013901801364536B43F001030A
:1050C000536370470068014008CE002006CE0020E0
:1050D000014BD3F8AC00704700680140024B01223D
:1050E000C3F8AC105A62704700680140124A536915
:1050F000DB0370B51ED50023C2F88430BFF34F8F99
:10510000D2F8803043F6E074C3F3C900C3F34E33E2
:105110005B0103EA0406014646EA81750139C2F8DB
:105120007452F9D2203B13F1200FF2D1BFF34F8F0D
:10513000BFF36F8F70BD00BF00ED00E070B5044697
:1051400013F0E3F823685D6E16F008FB0146204675
:10515000A84723682046054AD3F888504FF04041BD
:105160000023AC46BDE87040604700BF00FC03C0B0
:1051700013F0B2B890F84B3013B1024B01221A7001
:1051800013F0B6B804CE002013F070B813F0D9B9FC
:10519000034B4FF080629A604FF080729A607047C4
:1051A00000E100E0084B4FF08062C3F88820BFF3B5
:1051B0004F8FBFF36F8F4FF08072C3F88820BFF31B
:1051C0004F8FBFF36F8F704700E100E010B5144CB4
:1051D000236823B3134B144A1B6C11888B4213D1E1
:1051E000124B198806F046F9226892F866300133AE
:1051F00082F86630FFF724FC206813F0D9FD002008
:10520000BDE81040FFF7C7BA06F034F9206803681C
:105210001B6A98470020BDE81040FFF7BDBA10BDDB
:10522000C85D01200068014008CE002006CE0020A5
:10523000704708B5042918D8DFE801F003070B0F01
:10524000130002F0E1F9006808BD02F0DDF94068E2
:10525000FAE702F0D9F98068F6E702F0D5F9C068FC
:10526000F2E702F0D1F90069EEE70020ECE710B5B3
:105270000446042125F03DFA204610BD0048704741
:105280000CFB02080720704713B5002451B10368D6
:1052900001AA01948DF803409C680DF10303A04717
:1052A00002B010BD0846FBE7C0897047008A70470E
:1052B000C088704780887047807A00F07F00704710
:1052C000807AC0097047704710B50446082125F060
:1052D00010FA204610BD7047704700F598730868B3
:1052E000496803C370477047704741607047704713
:1052F000064BC0F84801C0F84C310023C0F85031CB
:1053000000F5A273C0F84031704700BF195700087C
:105310000123037270477047704710B44168034619
:10532000C2689B68541001EB6200D20748BF0A595B
:105330005DF8044B48BFD358184743682BB18368C6
:105340002BB9C06800F00100704718467047012073
:10535000704710B504460C2125F0CBF9204610BD4E
:1053600010B50446102125F0C4F9204610BD10B533
:1053700004464FF4AE7125F0BCF9204610BD08B5C7
:1053800016F0ECF9BDE8084016F032BE10B5044640
:10539000D0F8400158B10368DB68984738B1D4F8B9
:1053A000400103689B6898470023C4F8403110BD52
:1053B000F8B5044617460E4616F096FA104B00252F
:1053C0001C6029460F4BC4E955760F4E23603068A8
:1053D0000E4BC4E95355C4E951350368C4E94F5530
:1053E0009B689847284602F0C3F8336893F8762004
:1053F0000AB1D86C00B998681EF077FA2046F8BD5B
:10540000145E0120F0000308C85D0120D8000308E5
:10541000064BC0F84801C0F84C310023C0F85031A9
:1054200000F5A273C0F84031704700BF195700085B
:10543000064BC0F84801C0F84C310023C0F8503189
:1054400000F5A273C0F84031704700BFC95500088D
:10545000064BC0F84801C0F84C310023C0F8503169
:1054600000F5A273C0F84031704700BF79540008BE
:1054700003685B6A184700002DE9F14FD0E9555ADF
:105480000746A86803681B6A9847B0F5DF6F05D226
:10549000454BA321454A464825F05AF968680368F8
:1054A0001B6A98470F2803D8424BA4213F4AF2E7D2
:1054B000E86803681B6A98470B2803D83E4BA52170
:1054C0003A4AE8E7DFF8F89016F048F9043016F0A9
:1054D0006AF9D9F8000010B10368DB689847D9F879
:1054E000000010B103681B689847DFF8D880D8F82F
:1054F000000010B103685B699847D7F83C0110B110
:1055000003685B689847D8F8000010B103681B680F
:105510009847D7F83C0110B103689B689847002171
:10552000E868FFF7A5FF4FF0000B244B0446C0F8D6
:1055300004B05946036080F808B0A86803685B6A45
:105540009847064602F0E6F86868594603685B6AC1
:1055500098470546314602F0A3F8C9F80040C7F85D
:105560003C51C8F80060E5B12B1DCAF80030304648
:105570003368C5F808A0DB68F56398472B682846B0
:105580001B6898472146304617F080FD2368204667
:105590001B699847236820465B6901B0BDE8F04F5E
:1055A00018472B46E1E700BFA8FB020836FC0208BB
:1055B0003AFD020881FD020824FE02083C010308AE
:1055C000085E0120045E01202DE9F14FD0E9555A13
:1055D0000746A86803681B6A9847B0F5EC6F05D2C8
:1055E000454BA321454A464825F0B2F86868036850
:1055F0001B6A98470F2803D8424BA4213F4AF2E781
:10560000E86803681B6A98470B2803D83E4BA5211E
:105610003A4AE8E7DFF8F89016F0A0F8043016F000
:10562000C2F8D9F8000010B10368DB689847D9F8D0
:10563000000010B103681B689847DFF8D880D8F8DD
:10564000000010B103685B699847D7F83C0110B1BE
:1056500003685B689847D8F8000010B103681B68BE
:105660009847D7F83C0110B103689B689847002120
:10567000E868FFF7FDFE4FF0000B244B0446C0F82E
:1056800004B05946036080F808B0A86803685B6AF4
:105690009847064602F022F96868594603685B6A33
:1056A00098470546314602F0EBF8C9F80040C7F8C4
:1056B0003C51C8F80060E5B12B1DCAF800303046F7
:1056C0003368C5F808A0DB68F56398472B6828465F
:1056D0001B6898472146304617F0D8FC23682046BF
:1056E0001B699847236820465B6901B0BDE8F04F0D
:1056F00018472B46E1E700BFA8FB0208C7FE0208D7
:105700003AFD020881FD020824FE02083C0103085C
:10571000085E0120045E01202DE9F14FD0E9555AC1
:105720000746A86803681B6A9847B0F5207F05D232
:10573000454BA321454A464825F00AF868680368A6
:105740001B6A98470F2803D8424BA4213F4AF2E72F
:10575000E86803681B6A98470B2803D83E4BA521CD
:105760003A4AE8E7DFF8F89015F0F8FF043016F051
:105770001AF8D9F8000010B10368DB689847D9F827
:10578000000010B103681B689847DFF8D880D8F88C
:10579000000010B103685B699847D7F83C0110B16D
:1057A00003685B689847D8F8000010B103681B686D
:1057B0009847D7F83C0110B103689B6898470021CF
:1057C000E868FFF755FE4FF0000B244B0446C0F885
:1057D00004B05946036080F808B0A86803685B6AA3
:1057E0009847064602F070F96868594603685B6A94
:1057F00098470546314602F041F9C9F80040C7F81C
:105800003C51C8F80060E5B12B1DCAF800303046A5
:105810003368C5F808A0DB68F56398472B6828460D
:105820001B6898472146304617F030FC2368204615
:105830001B699847236820465B6901B0BDE8F04FBB
:1058400018472B46E1E700BFA8FB0208CBFF020880
:105850003AFD020881FD020824FE02083C0103080B
:10586000085E0120045E0120406A7047806A70472C
:1058700070478B88C069DB0A0A6850F8230010441F
:10588000704710B5C2B1137BB3B1547BD27A2402F6
:1058900004F4E0641443026A98B202EB84021388B1
:1058A0008B4202D192F9020010BD05D801380432B2
:1058B00080B20028F3D1F7E70020F5E710B50446E1
:1058C0002C2124F016FF204610BD000030B58BB00F
:1058D0000446BDF860500895BDF85C5007959DF8EA
:1058E000505006959DF84C5005959DF848500495EC
:1058F0009DF8445003959DF8405002959DF83C500A
:105900000195BDF83850009517F01AF8064B20465F
:105910002360159BE361169B2362199B63621A9BAC
:10592000A3620BB030BD00BF6001030800207047C8
:1059300081807047C1807047018170474181704705
:105940007047704770477047704710B4C488036849
:10595000121B84885B6D091B12B25DF8044B09B2FF
:1059600018474FF6FF7383814FF0FF3303621368CC
:10597000C361106070477047704770477047704749
:1059800090F825201AB190F8242002B118607047D1
:1059900030B585B00368044601816D460146D3F8F1
:1059A00084303C342846984795E8070084E807008F
:1059B00005B030BD30B585B00368044641816D4601
:1059C0000146D3F884303C342846984795E80700D0
:1059D00084E8070005B030BD00220280428082804A
:1059E000C280704780F836107047036870B504466F
:1059F0001B6B154698472368204629465B6EBDE819
:105A00007040184700207047806C7047704770479F
:105A10007047704770477047704730B4446803461A
:105A2000C2689B68551004EB6200D20748BF6259F8
:105A300030BC48BFD358184743682BB183682BB993
:105A4000C06800F001007047184670470120704799
:105A500083898B4286BF00EB81004068002070473D
:105A600010B5031D8489002291B28C4208D953F8E5
:105A7000041B1046013291F837100029F4D010BDF4
:105A80004FF0FF30FBE7036810B51B6904469847E9
:105A9000011E06DB2368204689B2DB68BDE81040A2
:105AA0001847002010BD838943B1012B426818BFFD
:105AB000836882F8381018BF83F83810704730B404
:105AC00044680346C2689B68551004EB6200D20725
:105AD00048BF625930BC48BFD358184743682BB100
